{
  "_format": "hh-sol-artifact-1",
  "contractName": "MyEpicNFT",
  "sourceName": "contracts/MyEpicNFT.sol",
  "abi": [
    {
      "inputs": [],
      "stateMutability": "nonpayable",
      "type": "constructor"
    },
    {
      "anonymous": false,
      "inputs": [
        {
          "indexed": true,
          "internalType": "address",
          "name": "owner",
          "type": "address"
        },
        {
          "indexed": true,
          "internalType": "address",
          "name": "approved",
          "type": "address"
        },
        {
          "indexed": true,
          "internalType": "uint256",
          "name": "tokenId",
          "type": "uint256"
        }
      ],
      "name": "Approval",
      "type": "event"
    },
    {
      "anonymous": false,
      "inputs": [
        {
          "indexed": true,
          "internalType": "address",
          "name": "owner",
          "type": "address"
        },
        {
          "indexed": true,
          "internalType": "address",
          "name": "operator",
          "type": "address"
        },
        {
          "indexed": false,
          "internalType": "bool",
          "name": "approved",
          "type": "bool"
        }
      ],
      "name": "ApprovalForAll",
      "type": "event"
    },
    {
      "anonymous": false,
      "inputs": [
        {
          "indexed": false,
          "internalType": "address",
          "name": "sender",
          "type": "address"
        },
        {
          "indexed": false,
          "internalType": "uint256",
          "name": "tokenId",
          "type": "uint256"
        }
      ],
      "name": "NewEpicNFTMinted",
      "type": "event"
    },
    {
      "anonymous": false,
      "inputs": [
        {
          "indexed": true,
          "internalType": "address",
          "name": "from",
          "type": "address"
        },
        {
          "indexed": true,
          "internalType": "address",
          "name": "to",
          "type": "address"
        },
        {
          "indexed": true,
          "internalType": "uint256",
          "name": "tokenId",
          "type": "uint256"
        }
      ],
      "name": "Transfer",
      "type": "event"
    },
    {
      "inputs": [
        {
          "internalType": "address",
          "name": "to",
          "type": "address"
        },
        {
          "internalType": "uint256",
          "name": "tokenId",
          "type": "uint256"
        }
      ],
      "name": "approve",
      "outputs": [],
      "stateMutability": "nonpayable",
      "type": "function"
    },
    {
      "inputs": [
        {
          "internalType": "address",
          "name": "owner",
          "type": "address"
        }
      ],
      "name": "balanceOf",
      "outputs": [
        {
          "internalType": "uint256",
          "name": "",
          "type": "uint256"
        }
      ],
      "stateMutability": "view",
      "type": "function"
    },
    {
      "inputs": [
        {
          "internalType": "uint256",
          "name": "tokenId",
          "type": "uint256"
        }
      ],
      "name": "getApproved",
      "outputs": [
        {
          "internalType": "address",
          "name": "",
          "type": "address"
        }
      ],
      "stateMutability": "view",
      "type": "function"
    },
    {
      "inputs": [],
      "name": "getTotalNFTMinted",
      "outputs": [
        {
          "internalType": "uint256",
          "name": "",
          "type": "uint256"
        }
      ],
      "stateMutability": "view",
      "type": "function"
    },
    {
      "inputs": [
        {
          "internalType": "address",
          "name": "owner",
          "type": "address"
        },
        {
          "internalType": "address",
          "name": "operator",
          "type": "address"
        }
      ],
      "name": "isApprovedForAll",
      "outputs": [
        {
          "internalType": "bool",
          "name": "",
          "type": "bool"
        }
      ],
      "stateMutability": "view",
      "type": "function"
    },
    {
      "inputs": [],
      "name": "makeAnEpicNFT",
      "outputs": [],
      "stateMutability": "nonpayable",
      "type": "function"
    },
    {
      "inputs": [],
      "name": "name",
      "outputs": [
        {
          "internalType": "string",
          "name": "",
          "type": "string"
        }
      ],
      "stateMutability": "view",
      "type": "function"
    },
    {
      "inputs": [
        {
          "internalType": "uint256",
          "name": "tokenId",
          "type": "uint256"
        }
      ],
      "name": "ownerOf",
      "outputs": [
        {
          "internalType": "address",
          "name": "",
          "type": "address"
        }
      ],
      "stateMutability": "view",
      "type": "function"
    },
    {
      "inputs": [
        {
          "internalType": "uint256",
          "name": "tokenId",
          "type": "uint256"
        }
      ],
      "name": "pickRandomFirstWord",
      "outputs": [
        {
          "internalType": "string",
          "name": "",
          "type": "string"
        }
      ],
      "stateMutability": "view",
      "type": "function"
    },
    {
      "inputs": [
        {
          "internalType": "uint256",
          "name": "tokenId",
          "type": "uint256"
        }
      ],
      "name": "pickRandomSecondWord",
      "outputs": [
        {
          "internalType": "string",
          "name": "",
          "type": "string"
        }
      ],
      "stateMutability": "view",
      "type": "function"
    },
    {
      "inputs": [
        {
          "internalType": "uint256",
          "name": "tokenId",
          "type": "uint256"
        }
      ],
      "name": "pickRandomThirdWord",
      "outputs": [
        {
          "internalType": "string",
          "name": "",
          "type": "string"
        }
      ],
      "stateMutability": "view",
      "type": "function"
    },
    {
      "inputs": [
        {
          "internalType": "address",
          "name": "from",
          "type": "address"
        },
        {
          "internalType": "address",
          "name": "to",
          "type": "address"
        },
        {
          "internalType": "uint256",
          "name": "tokenId",
          "type": "uint256"
        }
      ],
      "name": "safeTransferFrom",
      "outputs": [],
      "stateMutability": "nonpayable",
      "type": "function"
    },
    {
      "inputs": [
        {
          "internalType": "address",
          "name": "from",
          "type": "address"
        },
        {
          "internalType": "address",
          "name": "to",
          "type": "address"
        },
        {
          "internalType": "uint256",
          "name": "tokenId",
          "type": "uint256"
        },
        {
          "internalType": "bytes",
          "name": "data",
          "type": "bytes"
        }
      ],
      "name": "safeTransferFrom",
      "outputs": [],
      "stateMutability": "nonpayable",
      "type": "function"
    },
    {
      "inputs": [
        {
          "internalType": "address",
          "name": "operator",
          "type": "address"
        },
        {
          "internalType": "bool",
          "name": "approved",
          "type": "bool"
        }
      ],
      "name": "setApprovalForAll",
      "outputs": [],
      "stateMutability": "nonpayable",
      "type": "function"
    },
    {
      "inputs": [
        {
          "internalType": "bytes4",
          "name": "interfaceId",
          "type": "bytes4"
        }
      ],
      "name": "supportsInterface",
      "outputs": [
        {
          "internalType": "bool",
          "name": "",
          "type": "bool"
        }
      ],
      "stateMutability": "view",
      "type": "function"
    },
    {
      "inputs": [],
      "name": "symbol",
      "outputs": [
        {
          "internalType": "string",
          "name": "",
          "type": "string"
        }
      ],
      "stateMutability": "view",
      "type": "function"
    },
    {
      "inputs": [
        {
          "internalType": "uint256",
          "name": "tokenId",
          "type": "uint256"
        }
      ],
      "name": "tokenURI",
      "outputs": [
        {
          "internalType": "string",
          "name": "",
          "type": "string"
        }
      ],
      "stateMutability": "view",
      "type": "function"
    },
    {
      "inputs": [
        {
          "internalType": "address",
          "name": "from",
          "type": "address"
        },
        {
          "internalType": "address",
          "name": "to",
          "type": "address"
        },
        {
          "internalType": "uint256",
          "name": "tokenId",
          "type": "uint256"
        }
      ],
      "name": "transferFrom",
      "outputs": [],
      "stateMutability": "nonpayable",
      "type": "function"
    }
  ],
  "bytecode": "0x608060405260006008556032600955604051806102e001604052806102b68152602001620042b66102b69139600a90805190602001906200004292919062000688565b506040518060c001604052806040518060400160405280600681526020017f436176616c6f000000000000000000000000000000000000000000000000000081525081526020016040518060400160405280600881526020017f436163686f72726f00000000000000000000000000000000000000000000000081525081526020016040518060400160405280600481526020017f4761746f0000000000000000000000000000000000000000000000000000000081525081526020016040518060400160405280600481526020017f566163610000000000000000000000000000000000000000000000000000000081525081526020016040518060400160405280600381526020017f426f69000000000000000000000000000000000000000000000000000000000081525081526020016040518060400160405280600781526020017f4a756d656e746f00000000000000000000000000000000000000000000000000815250815250600b906006620001c092919062000719565b506040518060c001604052806040518060400160405280600481526020017f5361706f0000000000000000000000000000000000000000000000000000000081525081526020016040518060400160405280600881526020017f506572657265636100000000000000000000000000000000000000000000000081525081526020016040518060400160405280600581526020017f436f62726100000000000000000000000000000000000000000000000000000081525081526020016040518060400160405280600581526020017f506569786500000000000000000000000000000000000000000000000000000081525081526020016040518060400160405280600781526020017f43616d6172616f0000000000000000000000000000000000000000000000000081525081526020016040518060400160405280600981526020017f5461727461727567610000000000000000000000000000000000000000000000815250815250600c9060066200033e92919062000719565b506040518060c001604052806040518060400160405280600a81526020017f4265696a612d666c6f720000000000000000000000000000000000000000000081525081526020016040518060400160405280600981526020017f42656d2d74652d7669000000000000000000000000000000000000000000000081525081526020016040518060400160405280600d81526020017f4a6f616f2d64652d626172726f0000000000000000000000000000000000000081525081526020016040518060400160405280600781526020017f436f6c6569726f0000000000000000000000000000000000000000000000000081525081526020016040518060400160405280600581526020017f536162696100000000000000000000000000000000000000000000000000000081525081526020016040518060400160405280600781526020017f526f6c696e686100000000000000000000000000000000000000000000000000815250815250600d906006620004bc92919062000719565b50348015620004ca57600080fd5b506040518060400160405280600981526020017f5371756172654e465400000000000000000000000000000000000000000000008152506040518060400160405280600681526020017f535155415245000000000000000000000000000000000000000000000000000081525081600090805190602001906200054f92919062000688565b5080600190805190602001906200056892919062000688565b505050620005b66040518060400160405280601c81526020017f45737365206568206d657520636f6e747261746f206465204e46542100000000815250620005bc60201b6200112e1760201c565b6200093a565b6200065c81604051602401620005d391906200084e565b6040516020818303038152906040527f41304fac000000000000000000000000000000000000000000000000000000007bffffffffffffffffffffffffffffffffffffffffffffffffffffffff19166020820180517bffffffffffffffffffffffffffffffffffffffffffffffffffffffff83818316178352505050506200065f60201b60201c565b50565b60008151905060006a636f6e736f6c652e6c6f679050602083016000808483855afa5050505050565b8280546200069690620008c4565b90600052602060002090601f016020900481019282620006ba576000855562000706565b82601f10620006d557805160ff191683800117855562000706565b8280016001018555821562000706579182015b8281111562000705578251825591602001919060010190620006e8565b5b50905062000715919062000780565b5090565b8280548282559060005260206000209081019282156200076d579160200282015b828111156200076c5782518290805190602001906200075b92919062000688565b50916020019190600101906200073a565b5b5090506200077c91906200079f565b5090565b5b808211156200079b57600081600090555060010162000781565b5090565b5b80821115620007c35760008181620007b99190620007c7565b50600101620007a0565b5090565b508054620007d590620008c4565b6000825580601f10620007e957506200080a565b601f01602090049060005260206000209081019062000809919062000780565b5b50565b60006200081a8262000872565b6200082681856200087d565b9350620008388185602086016200088e565b620008438162000929565b840191505092915050565b600060208201905081810360008301526200086a81846200080d565b905092915050565b600081519050919050565b600082825260208201905092915050565b60005b83811015620008ae57808201518184015260208101905062000891565b83811115620008be576000848401525b50505050565b60006002820490506001821680620008dd57607f821691505b60208210811415620008f457620008f3620008fa565b5b50919050565b7f4e487b7100000000000000000000000000000000000000000000000000000000600052602260045260246000fd5b6000601f19601f8301169050919050565b61396c806200094a6000396000f3fe608060405234801561001057600080fd5b50600436106101165760003560e01c806395d89b41116100a2578063b88d4fde11610071578063b88d4fde14610305578063c575757a14610321578063c87b56dd14610351578063de9d132f14610381578063e985e9c51461038b57610116565b806395d89b411461027d578063986f5be21461029b578063a22cb465146102b9578063b187301f146102d557610116565b806323b872dd116100e957806323b872dd146101b55780632de38d68146101d157806342842e0e146102015780636352211e1461021d57806370a082311461024d57610116565b806301ffc9a71461011b57806306fdde031461014b578063081812fc14610169578063095ea7b314610199575b600080fd5b610135600480360381019061013091906125b9565b6103bb565b6040516101429190612c9f565b60405180910390f35b61015361049d565b6040516101609190612cba565b60405180910390f35b610183600480360381019061017e919061260b565b61052f565b6040516101909190612c0f565b60405180910390f35b6101b360048036038101906101ae919061257d565b610575565b005b6101cf60048036038101906101ca9190612477565b61068d565b005b6101eb60048036038101906101e6919061260b565b6106ed565b6040516101f89190612cba565b60405180910390f35b61021b60048036038101906102169190612477565b61080b565b005b6102376004803603810190610232919061260b565b61082b565b6040516102449190612c0f565b60405180910390f35b61026760048036038101906102629190612412565b6108dd565b6040516102749190612eea565b60405180910390f35b610285610995565b6040516102929190612cba565b60405180910390f35b6102a3610a27565b6040516102b09190612eea565b60405180910390f35b6102d360048036038101906102ce9190612541565b610a31565b005b6102ef60048036038101906102ea919061260b565b610a47565b6040516102fc9190612cba565b60405180910390f35b61031f600480360381019061031a91906124c6565b610b65565b005b61033b6004803603810190610336919061260b565b610bc7565b6040516103489190612cba565b60405180910390f35b61036b6004803603810190610366919061260b565b610ce5565b6040516103789190612cba565b60405180910390f35b610389610df8565b005b6103a560048036038101906103a0919061243b565b61109a565b6040516103b29190612c9f565b60405180910390f35b60007f80ac58cd000000000000000000000000000000000000000000000000000000007bffffffffffffffffffffffffffffffffffffffffffffffffffffffff1916827bffffffffffffffffffffffffffffffffffffffffffffffffffffffff1916148061048657507f5b5e139f000000000000000000000000000000000000000000000000000000007bffffffffffffffffffffffffffffffffffffffffffffffffffffffff1916827bffffffffffffffffffffffffffffffffffffffffffffffffffffffff1916145b806104965750610495826111c7565b5b9050919050565b6060600080546104ac9061317e565b80601f01602080910402602001604051908101604052809291908181526020018280546104d89061317e565b80156105255780601f106104fa57610100808354040283529160200191610525565b820191906000526020600020905b81548152906001019060200180831161050857829003601f168201915b5050505050905090565b600061053a82611231565b6004600083815260200190815260200160002060009054906101000a900473ffffffffffffffffffffffffffffffffffffffff169050919050565b60006105808261082b565b90508073ffffffffffffffffffffffffffffffffffffffff168373ffffffffffffffffffffffffffffffffffffffff1614156105f1576040517f08c379a00000000000000000000000000000000000000000000000000000000081526004016105e890612e8a565b60405180910390fd5b8073ffffffffffffffffffffffffffffffffffffffff1661061061127c565b73ffffffffffffffffffffffffffffffffffffffff16148061063f575061063e8161063961127c565b61109a565b5b61067e576040517f08c379a000000000000000000000000000000000000000000000000000000000815260040161067590612e2a565b60405180910390fd5b6106888383611284565b505050565b61069e61069861127c565b8261133d565b6106dd576040517f08c379a00000000000000000000000000000000000000000000000000000000081526004016106d490612eaa565b60405180910390fd5b6106e88383836113d2565b505050565b606060006107216106fd84611639565b60405160200161070d9190612b64565b6040516020818303038152906040526117e6565b9050600b8054905081610734919061322a565b9050600b8181548110610770577f4e487b7100000000000000000000000000000000000000000000000000000000600052603260045260246000fd5b9060005260206000200180546107859061317e565b80601f01602080910402602001604051908101604052809291908181526020018280546107b19061317e565b80156107fe5780601f106107d3576101008083540402835291602001916107fe565b820191906000526020600020905b8154815290600101906020018083116107e157829003601f168201915b5050505050915050919050565b61082683838360405180602001604052806000815250610b65565b505050565b6000806002600084815260200190815260200160002060009054906101000a900473ffffffffffffffffffffffffffffffffffffffff169050600073ffffffffffffffffffffffffffffffffffffffff168173ffffffffffffffffffffffffffffffffffffffff1614156108d4576040517f08c379a00000000000000000000000000000000000000000000000000000000081526004016108cb90612e6a565b60405180910390fd5b80915050919050565b60008073ffffffffffffffffffffffffffffffffffffffff168273ffffffffffffffffffffffffffffffffffffffff16141561094e576040517f08c379a000000000000000000000000000000000000000000000000000000000815260040161094590612dea565b60405180910390fd5b600360008373ffffffffffffffffffffffffffffffffffffffff1673ffffffffffffffffffffffffffffffffffffffff168152602001908152602001600020549050919050565b6060600180546109a49061317e565b80601f01602080910402602001604051908101604052809291908181526020018280546109d09061317e565b8015610a1d5780601f106109f257610100808354040283529160200191610a1d565b820191906000526020600020905b815481529060010190602001808311610a0057829003601f168201915b5050505050905090565b6000600854905090565b610a43610a3c61127c565b8383611819565b5050565b60606000610a7b610a5784611639565b604051602001610a679190612b42565b6040516020818303038152906040526117e6565b9050600c8054905081610a8e919061322a565b9050600c8181548110610aca577f4e487b7100000000000000000000000000000000000000000000000000000000600052603260045260246000fd5b906000526020600020018054610adf9061317e565b80601f0160208091040260200160405190810160405280929190818152602001828054610b0b9061317e565b8015610b585780601f10610b2d57610100808354040283529160200191610b58565b820191906000526020600020905b815481529060010190602001808311610b3b57829003601f168201915b5050505050915050919050565b610b76610b7061127c565b8361133d565b610bb5576040517f08c379a0000000000000000000000000000000000000000000000000000000008152600401610bac90612eaa565b60405180910390fd5b610bc184848484611986565b50505050565b60606000610bfb610bd784611639565b604051602001610be79190612b86565b6040516020818303038152906040526117e6565b9050600d8054905081610c0e919061322a565b9050600d8181548110610c4a577f4e487b7100000000000000000000000000000000000000000000000000000000600052603260045260246000fd5b906000526020600020018054610c5f9061317e565b80601f0160208091040260200160405190810160405280929190818152602001828054610c8b9061317e565b8015610cd85780601f10610cad57610100808354040283529160200191610cd8565b820191906000526020600020905b815481529060010190602001808311610cbb57829003601f168201915b5050505050915050919050565b6060610cf082611231565b6000600660008481526020019081526020016000208054610d109061317e565b80601f0160208091040260200160405190810160405280929190818152602001828054610d3c9061317e565b8015610d895780601f10610d5e57610100808354040283529160200191610d89565b820191906000526020600020905b815481529060010190602001808311610d6c57829003601f168201915b505050505090506000610d9a6119e2565b9050600081511415610db0578192505050610df3565b600082511115610de5578082604051602001610dcd929190612a9c565b60405160208183030381529060405292505050610df3565b610dee846119f9565b925050505b919050565b60095460085410610e3e576040517f08c379a0000000000000000000000000000000000000000000000000000000008152600401610e3590612eca565b60405180910390fd5b6000610e4a6007611a61565b90506000610e57826106ed565b90506000610e6483610a47565b90506000610e7184610bc7565b90506000838383604051602001610e8a93929190612ac0565b60405160208183030381529060405290506000600a82604051602001610eb1929190612af1565b60405160208183030381529060405290506000610ef683610ed184611a6f565b604051602001610ee2929190612ba8565b604051602081830303815290604052611a6f565b9050600081604051602001610f0b9190612bed565b6040516020818303038152906040529050610f5a6040518060400160405280601581526020017f0a2d2d2d2d2d2d2d2d2d2d2d2d2d2d2d2d2d2d2d2d000000000000000000000081525061112e565b610f8281604051602001610f6e9190612b20565b60405160208183030381529060405261112e565b610fc06040518060400160405280601581526020017f2d2d2d2d2d2d2d2d2d2d2d2d2d2d2d2d2d2d2d2d0a000000000000000000000081525061112e565b610fca3389611c2d565b610fd48882611c4b565b610fde6007611cbf565b7febb98688741ffa4c7589bf325de30cf7becb63de567842e1ccdb6cb949fdc82c338960405161100f929190612c76565b60405180910390a160016008546110269190612fb3565b60088190555061104f6040518060600160405280602481526020016138d3602491398933611cd5565b6110906040518060400160405280601481526020017f546f74616c204e46542063756e6861646f202573000000000000000000000000815250600854611d74565b5050505050505050565b6000600560008473ffffffffffffffffffffffffffffffffffffffff1673ffffffffffffffffffffffffffffffffffffffff16815260200190815260200160002060008373ffffffffffffffffffffffffffffffffffffffff1673ffffffffffffffffffffffffffffffffffffffff16815260200190815260200160002060009054906101000a900460ff16905092915050565b6111c4816040516024016111429190612cba565b6040516020818303038152906040527f41304fac000000000000000000000000000000000000000000000000000000007bffffffffffffffffffffffffffffffffffffffffffffffffffffffff19166020820180517bffffffffffffffffffffffffffffffffffffffffffffffffffffffff8381831617835250505050611e10565b50565b60007f01ffc9a7000000000000000000000000000000000000000000000000000000007bffffffffffffffffffffffffffffffffffffffffffffffffffffffff1916827bffffffffffffffffffffffffffffffffffffffffffffffffffffffff1916149050919050565b61123a81611e39565b611279576040517f08c379a000000000000000000000000000000000000000000000000000000000815260040161127090612e6a565b60405180910390fd5b50565b600033905090565b816004600083815260200190815260200160002060006101000a81548173ffffffffffffffffffffffffffffffffffffffff021916908373ffffffffffffffffffffffffffffffffffffffff160217905550808273ffffffffffffffffffffffffffffffffffffffff166112f78361082b565b73ffffffffffffffffffffffffffffffffffffffff167f8c5be1e5ebec7d5bd14f71427d1e84f3dd0314c0f7b2291e5b200ac8c7c3b92560405160405180910390a45050565b6000806113498361082b565b90508073ffffffffffffffffffffffffffffffffffffffff168473ffffffffffffffffffffffffffffffffffffffff16148061138b575061138a818561109a565b5b806113c957508373ffffffffffffffffffffffffffffffffffffffff166113b18461052f565b73ffffffffffffffffffffffffffffffffffffffff16145b91505092915050565b8273ffffffffffffffffffffffffffffffffffffffff166113f28261082b565b73ffffffffffffffffffffffffffffffffffffffff1614611448576040517f08c379a000000000000000000000000000000000000000000000000000000000815260040161143f90612d6a565b60405180910390fd5b600073ffffffffffffffffffffffffffffffffffffffff168273ffffffffffffffffffffffffffffffffffffffff1614156114b8576040517f08c379a00000000000000000000000000000000000000000000000000000000081526004016114af90612daa565b60405180910390fd5b6114c3838383611ea5565b6114ce600082611284565b6001600360008573ffffffffffffffffffffffffffffffffffffffff1673ffffffffffffffffffffffffffffffffffffffff168152602001908152602001600020600082825461151e9190613094565b925050819055506001600360008473ffffffffffffffffffffffffffffffffffffffff1673ffffffffffffffffffffffffffffffffffffffff16815260200190815260200160002060008282546115759190612fb3565b92505081905550816002600083815260200190815260200160002060006101000a81548173ffffffffffffffffffffffffffffffffffffffff021916908373ffffffffffffffffffffffffffffffffffffffff160217905550808273ffffffffffffffffffffffffffffffffffffffff168473ffffffffffffffffffffffffffffffffffffffff167fddf252ad1be2c89b69c2b068fc378daa952ba7f163c4a11628f55a4df523b3ef60405160405180910390a4611634838383611eaa565b505050565b60606000821415611681576040518060400160405280600181526020017f300000000000000000000000000000000000000000000000000000000000000081525090506117e1565b600082905060005b600082146116b357808061169c906131e1565b915050600a826116ac9190613009565b9150611689565b60008167ffffffffffffffff8111156116f5577f4e487b7100000000000000000000000000000000000000000000000000000000600052604160045260246000fd5b6040519080825280601f01601f1916602001820160405280156117275781602001600182028036833780820191505090505b5090505b600085146117da576001826117409190613094565b9150600a8561174f919061322a565b603061175b9190612fb3565b60f81b818381518110611797577f4e487b7100000000000000000000000000000000000000000000000000000000600052603260045260246000fd5b60200101907effffffffffffffffffffffffffffffffffffffffffffffffffffffffffffff1916908160001a905350600a856117d39190613009565b945061172b565b8093505050505b919050565b6000816040516020016117f99190612a85565b6040516020818303038152906040528051906020012060001c9050919050565b8173ffffffffffffffffffffffffffffffffffffffff168373ffffffffffffffffffffffffffffffffffffffff161415611888576040517f08c379a000000000000000000000000000000000000000000000000000000000815260040161187f90612dca565b60405180910390fd5b80600560008573ffffffffffffffffffffffffffffffffffffffff1673ffffffffffffffffffffffffffffffffffffffff16815260200190815260200160002060008473ffffffffffffffffffffffffffffffffffffffff1673ffffffffffffffffffffffffffffffffffffffff16815260200190815260200160002060006101000a81548160ff0219169083151502179055508173ffffffffffffffffffffffffffffffffffffffff168373ffffffffffffffffffffffffffffffffffffffff167f17307eab39ab6107e8899845ad3d59bd9653f200f220920489ca2b5937696c31836040516119799190612c9f565b60405180910390a3505050565b6119918484846113d2565b61199d84848484611eaf565b6119dc576040517f08c379a00000000000000000000000000000000000000000000000000000000081526004016119d390612d4a565b60405180910390fd5b50505050565b606060405180602001604052806000815250905090565b6060611a0482611231565b6000611a0e6119e2565b90506000815111611a2e5760405180602001604052806000815250611a59565b80611a3884611639565b604051602001611a49929190612a9c565b6040516020818303038152906040525b915050919050565b600081600001549050919050565b60606000825190506000811415611a985760405180602001604052806000815250915050611c28565b60006003600283611aa99190612fb3565b611ab39190613009565b6004611abf919061303a565b90506000602082611ad09190612fb3565b67ffffffffffffffff811115611b0f577f4e487b7100000000000000000000000000000000000000000000000000000000600052604160045260246000fd5b6040519080825280601f01601f191660200182016040528015611b415781602001600182028036833780820191505090505b50905060006040518060600160405280604081526020016138f7604091399050600181016020830160005b86811015611be55760038101905062ffffff818a015116603f8160121c168401518060081b905060ff603f83600c1c1686015116810190508060081b905060ff603f8360061c1686015116810190508060081b905060ff603f831686015116810190508060e01b90508084526004840193505050611b6c565b506003860660018114611bff5760028114611c0f57611c1a565b613d3d60f01b6002830352611c1a565b603d60f81b60018303525b508484525050819450505050505b919050565b611c47828260405180602001604052806000815250612046565b5050565b611c5482611e39565b611c93576040517f08c379a0000000000000000000000000000000000000000000000000000000008152600401611c8a90612e0a565b60405180910390fd5b80600660008481526020019081526020016000209080519060200190611cba92919061229e565b505050565b6001816000016000828254019250508190555050565b611d6f838383604051602401611ced93929190612d0c565b6040516020818303038152906040527fe3849f79000000000000000000000000000000000000000000000000000000007bffffffffffffffffffffffffffffffffffffffffffffffffffffffff19166020820180517bffffffffffffffffffffffffffffffffffffffffffffffffffffffff8381831617835250505050611e10565b505050565b611e0c8282604051602401611d8a929190612cdc565b6040516020818303038152906040527f9710a9d0000000000000000000000000000000000000000000000000000000007bffffffffffffffffffffffffffffffffffffffffffffffffffffffff19166020820180517bffffffffffffffffffffffffffffffffffffffffffffffffffffffff8381831617835250505050611e10565b5050565b60008151905060006a636f6e736f6c652e6c6f679050602083016000808483855afa5050505050565b60008073ffffffffffffffffffffffffffffffffffffffff166002600084815260200190815260200160002060009054906101000a900473ffffffffffffffffffffffffffffffffffffffff1673ffffffffffffffffffffffffffffffffffffffff1614159050919050565b505050565b505050565b6000611ed08473ffffffffffffffffffffffffffffffffffffffff166120a1565b15612039578373ffffffffffffffffffffffffffffffffffffffff1663150b7a02611ef961127c565b8786866040518563ffffffff1660e01b8152600401611f1b9493929190612c2a565b602060405180830381600087803b158015611f3557600080fd5b505af1925050508015611f6657506040513d601f19601f82011682018060405250810190611f6391906125e2565b60015b611fe9573d8060008114611f96576040519150601f19603f3d011682016040523d82523d6000602084013e611f9b565b606091505b50600081511415611fe1576040517f08c379a0000000000000000000000000000000000000000000000000000000008152600401611fd890612d4a565b60405180910390fd5b805181602001fd5b63150b7a0260e01b7bffffffffffffffffffffffffffffffffffffffffffffffffffffffff1916817bffffffffffffffffffffffffffffffffffffffffffffffffffffffff19161491505061203e565b600190505b949350505050565b61205083836120c4565b61205d6000848484611eaf565b61209c576040517f08c379a000000000000000000000000000000000000000000000000000000000815260040161209390612d4a565b60405180910390fd5b505050565b6000808273ffffffffffffffffffffffffffffffffffffffff163b119050919050565b600073ffffffffffffffffffffffffffffffffffffffff168273ffffffffffffffffffffffffffffffffffffffff161415612134576040517f08c379a000000000000000000000000000000000000000000000000000000000815260040161212b90612e4a565b60405180910390fd5b61213d81611e39565b1561217d576040517f08c379a000000000000000000000000000000000000000000000000000000000815260040161217490612d8a565b60405180910390fd5b61218960008383611ea5565b6001600360008473ffffffffffffffffffffffffffffffffffffffff1673ffffffffffffffffffffffffffffffffffffffff16815260200190815260200160002060008282546121d99190612fb3565b92505081905550816002600083815260200190815260200160002060006101000a81548173ffffffffffffffffffffffffffffffffffffffff021916908373ffffffffffffffffffffffffffffffffffffffff160217905550808273ffffffffffffffffffffffffffffffffffffffff16600073ffffffffffffffffffffffffffffffffffffffff167fddf252ad1be2c89b69c2b068fc378daa952ba7f163c4a11628f55a4df523b3ef60405160405180910390a461229a60008383611eaa565b5050565b8280546122aa9061317e565b90600052602060002090601f0160209004810192826122cc5760008555612313565b82601f106122e557805160ff1916838001178555612313565b82800160010185558215612313579182015b828111156123125782518255916020019190600101906122f7565b5b5090506123209190612324565b5090565b5b8082111561233d576000816000905550600101612325565b5090565b600061235461234f84612f2a565b612f05565b90508281526020810184848401111561236c57600080fd5b61237784828561313c565b509392505050565b60008135905061238e81613876565b92915050565b6000813590506123a38161388d565b92915050565b6000813590506123b8816138a4565b92915050565b6000815190506123cd816138a4565b92915050565b600082601f8301126123e457600080fd5b81356123f4848260208601612341565b91505092915050565b60008135905061240c816138bb565b92915050565b60006020828403121561242457600080fd5b60006124328482850161237f565b91505092915050565b6000806040838503121561244e57600080fd5b600061245c8582860161237f565b925050602061246d8582860161237f565b9150509250929050565b60008060006060848603121561248c57600080fd5b600061249a8682870161237f565b93505060206124ab8682870161237f565b92505060406124bc868287016123fd565b9150509250925092565b600080600080608085870312156124dc57600080fd5b60006124ea8782880161237f565b94505060206124fb8782880161237f565b935050604061250c878288016123fd565b925050606085013567ffffffffffffffff81111561252957600080fd5b612535878288016123d3565b91505092959194509250565b6000806040838503121561255457600080fd5b60006125628582860161237f565b925050602061257385828601612394565b9150509250929050565b6000806040838503121561259057600080fd5b600061259e8582860161237f565b92505060206125af858286016123fd565b9150509250929050565b6000602082840312156125cb57600080fd5b60006125d9848285016123a9565b91505092915050565b6000602082840312156125f457600080fd5b6000612602848285016123be565b91505092915050565b60006020828403121561261d57600080fd5b600061262b848285016123fd565b91505092915050565b61263d816130c8565b82525050565b61264c816130da565b82525050565b600061265d82612f70565b6126678185612f86565b935061267781856020860161314b565b61268081613317565b840191505092915050565b600061269682612f7b565b6126a08185612f97565b93506126b081856020860161314b565b6126b981613317565b840191505092915050565b60006126cf82612f7b565b6126d98185612fa8565b93506126e981856020860161314b565b80840191505092915050565b600081546127028161317e565b61270c8186612fa8565b9450600182166000811461272757600181146127385761276b565b60ff1983168652818601935061276b565b61274185612f5b565b60005b8381101561276357815481890152600182019150602081019050612744565b838801955050505b50505092915050565b6000612781602583612fa8565b915061278c82613328565b602582019050919050565b60006127a4603283612f97565b91506127af82613377565b604082019050919050565b60006127c7602583612f97565b91506127d2826133c6565b604082019050919050565b60006127ea601c83612f97565b91506127f582613415565b602082019050919050565b600061280d602483612f97565b91506128188261343e565b604082019050919050565b6000612830601983612f97565b915061283b8261348d565b602082019050919050565b6000612853600f83612fa8565b915061285e826134b6565b600f82019050919050565b6000612876600d83612fa8565b9150612881826134df565b600d82019050919050565b6000612899602983612f97565b91506128a482613508565b604082019050919050565b60006128bc601083612fa8565b91506128c782613557565b601082019050919050565b60006128df602e83612f97565b91506128ea82613580565b604082019050919050565b6000612902600283612fa8565b915061290d826135cf565b600282019050919050565b6000612925603e83612f97565b9150612930826135f8565b604082019050919050565b6000612948602083612f97565b915061295382613647565b602082019050919050565b600061296b601083612fa8565b915061297682613670565b601082019050919050565b600061298e600a83612fa8565b915061299982613699565b600a82019050919050565b60006129b1601883612f97565b91506129bc826136c2565b602082019050919050565b60006129d4602183612f97565b91506129df826136eb565b604082019050919050565b60006129f7601d83612fa8565b9150612a028261373a565b601d82019050919050565b6000612a1a602e83612f97565b9150612a2582613763565b604082019050919050565b6000612a3d601f83612f97565b9150612a48826137b2565b602082019050919050565b6000612a60606d83612fa8565b9150612a6b826137db565b606d82019050919050565b612a7f81613132565b82525050565b6000612a9182846126c4565b915081905092915050565b6000612aa882856126c4565b9150612ab482846126c4565b91508190509392505050565b6000612acc82866126c4565b9150612ad882856126c4565b9150612ae482846126c4565b9150819050949350505050565b6000612afd82856126f5565b9150612b0982846126c4565b9150612b1482612869565b91508190509392505050565b6000612b2b82612774565b9150612b3782846126c4565b915081905092915050565b6000612b4d82612846565b9150612b5982846126c4565b915081905092915050565b6000612b6f826128af565b9150612b7b82846126c4565b915081905092915050565b6000612b918261295e565b9150612b9d82846126c4565b915081905092915050565b6000612bb382612981565b9150612bbf82856126c4565b9150612bca82612a53565b9150612bd682846126c4565b9150612be1826128f5565b91508190509392505050565b6000612bf8826129ea565b9150612c0482846126c4565b915081905092915050565b6000602082019050612c246000830184612634565b92915050565b6000608082019050612c3f6000830187612634565b612c4c6020830186612634565b612c596040830185612a76565b8181036060830152612c6b8184612652565b905095945050505050565b6000604082019050612c8b6000830185612634565b612c986020830184612a76565b9392505050565b6000602082019050612cb46000830184612643565b92915050565b60006020820190508181036000830152612cd4818461268b565b905092915050565b60006040820190508181036000830152612cf6818561268b565b9050612d056020830184612a76565b9392505050565b60006060820190508181036000830152612d26818661268b565b9050612d356020830185612a76565b612d426040830184612634565b949350505050565b60006020820190508181036000830152612d6381612797565b9050919050565b60006020820190508181036000830152612d83816127ba565b9050919050565b60006020820190508181036000830152612da3816127dd565b9050919050565b60006020820190508181036000830152612dc381612800565b9050919050565b60006020820190508181036000830152612de381612823565b9050919050565b60006020820190508181036000830152612e038161288c565b9050919050565b60006020820190508181036000830152612e23816128d2565b9050919050565b60006020820190508181036000830152612e4381612918565b9050919050565b60006020820190508181036000830152612e638161293b565b9050919050565b60006020820190508181036000830152612e83816129a4565b9050919050565b60006020820190508181036000830152612ea3816129c7565b9050919050565b60006020820190508181036000830152612ec381612a0d565b9050919050565b60006020820190508181036000830152612ee381612a30565b9050919050565b6000602082019050612eff6000830184612a76565b92915050565b6000612f0f612f20565b9050612f1b82826131b0565b919050565b6000604051905090565b600067ffffffffffffffff821115612f4557612f446132e8565b5b612f4e82613317565b9050602081019050919050565b60008190508160005260206000209050919050565b600081519050919050565b600081519050919050565b600082825260208201905092915050565b600082825260208201905092915050565b600081905092915050565b6000612fbe82613132565b9150612fc983613132565b9250827fffffffffffffffffffffffffffffffffffffffffffffffffffffffffffffffff03821115612ffe57612ffd61325b565b5b828201905092915050565b600061301482613132565b915061301f83613132565b92508261302f5761302e61328a565b5b828204905092915050565b600061304582613132565b915061305083613132565b9250817fffffffffffffffffffffffffffffffffffffffffffffffffffffffffffffffff04831182151516156130895761308861325b565b5b828202905092915050565b600061309f82613132565b91506130aa83613132565b9250828210156130bd576130bc61325b565b5b828203905092915050565b60006130d382613112565b9050919050565b60008115159050919050565b60007fffffffff0000000000000000000000000000000000000000000000000000000082169050919050565b600073ffffffffffffffffffffffffffffffffffffffff82169050919050565b6000819050919050565b82818337600083830152505050565b60005b8381101561316957808201518184015260208101905061314e565b83811115613178576000848401525b50505050565b6000600282049050600182168061319657607f821691505b602082108114156131aa576131a96132b9565b5b50919050565b6131b982613317565b810181811067ffffffffffffffff821117156131d8576131d76132e8565b5b80604052505050565b60006131ec82613132565b91507fffffffffffffffffffffffffffffffffffffffffffffffffffffffffffffffff82141561321f5761321e61325b565b5b600182019050919050565b600061323582613132565b915061324083613132565b9250826132505761324f61328a565b5b828206905092915050565b7f4e487b7100000000000000000000000000000000000000000000000000000000600052601160045260246000fd5b7f4e487b7100000000000000000000000000000000000000000000000000000000600052601260045260246000fd5b7f4e487b7100000000000000000000000000000000000000000000000000000000600052602260045260246000fd5b7f4e487b7100000000000000000000000000000000000000000000000000000000600052604160045260246000fd5b6000601f19601f8301169050919050565b7f68747470733a2f2f6e6674707265766965772e30786465762e636f6465732f3f60008201527f636f64653d000000000000000000000000000000000000000000000000000000602082015250565b7f4552433732313a207472616e7366657220746f206e6f6e20455243373231526560008201527f63656976657220696d706c656d656e7465720000000000000000000000000000602082015250565b7f4552433732313a207472616e736665722066726f6d20696e636f72726563742060008201527f6f776e6572000000000000000000000000000000000000000000000000000000602082015250565b7f4552433732313a20746f6b656e20616c7265616479206d696e74656400000000600082015250565b7f4552433732313a207472616e7366657220746f20746865207a65726f2061646460008201527f7265737300000000000000000000000000000000000000000000000000000000602082015250565b7f4552433732313a20617070726f766520746f2063616c6c657200000000000000600082015250565b7f534547554e44415f50414c415652410000000000000000000000000000000000600082015250565b7f3c2f746578743e3c2f7376673e00000000000000000000000000000000000000600082015250565b7f4552433732313a2061646472657373207a65726f206973206e6f74206120766160008201527f6c6964206f776e65720000000000000000000000000000000000000000000000602082015250565b7f5052494d454952415f50414c4156524100000000000000000000000000000000600082015250565b7f45524337323155524953746f726167653a2055524920736574206f66206e6f6e60008201527f6578697374656e7420746f6b656e000000000000000000000000000000000000602082015250565b7f227d000000000000000000000000000000000000000000000000000000000000600082015250565b7f4552433732313a20617070726f76652063616c6c6572206973206e6f7420746f60008201527f6b656e206f776e6572206e6f7220617070726f76656420666f7220616c6c0000602082015250565b7f4552433732313a206d696e7420746f20746865207a65726f2061646472657373600082015250565b7f54455243454952415f50414c4156524100000000000000000000000000000000600082015250565b7f7b226e616d65223a202200000000000000000000000000000000000000000000600082015250565b7f4552433732313a20696e76616c696420746f6b656e2049440000000000000000600082015250565b7f4552433732313a20617070726f76616c20746f2063757272656e74206f776e6560008201527f7200000000000000000000000000000000000000000000000000000000000000602082015250565b7f646174613a6170706c69636174696f6e2f6a736f6e3b6261736536342c000000600082015250565b7f4552433732313a2063616c6c6572206973206e6f7420746f6b656e206f776e6560008201527f72206e6f7220617070726f766564000000000000000000000000000000000000602082015250565b7f546f646f73206f73204e4654206a6120666f72616d2063756e6861646f732100600082015250565b7f222c20226465736372697074696f6e223a2022556d6120636f6c6563616f206160008201527f636c616d61646120652066616d6f7361206465204e465473206d61726176696c60208201527f686f736f732e222c2022696d616765223a2022646174613a696d6167652f737660408201527f672b786d6c3b6261736536342c00000000000000000000000000000000000000606082015250565b61387f816130c8565b811461388a57600080fd5b50565b613896816130da565b81146138a157600080fd5b50565b6138ad816130e6565b81146138b857600080fd5b50565b6138c481613132565b81146138cf57600080fd5b5056fe556d204e465420636f6d20494420257320666f692063756e6861646f20706172612025734142434445464748494a4b4c4d4e4f505152535455565758595a6162636465666768696a6b6c6d6e6f707172737475767778797a303132333435363738392b2fa26469706673582212202cd3ea28d074c6d8851e867ceadca1ba736faa436cee14ab023bba988c35c86f64736f6c634300080100333c7376672020786d6c6e733d27687474703a2f2f7777772e77332e6f72672f323030302f7376672720207072657365727665417370656374526174696f3d27784d696e594d696e206d65657427202076696577426f783d273020302033353020333530273e20203c646566733e202020203c6c696e6561724772616469656e742069643d274772616469656e7431273e2020202020203c73746f7020636c6173733d2773746f703127206f66667365743d273025272f3e2020202020203c73746f7020636c6173733d2773746f703227206f66667365743d27353025272f3e2020202020203c73746f7020636c6173733d2773746f703327206f66667365743d2731303025272f3e202020203c2f6c696e6561724772616469656e743e20203c2f646566733e20203c7374796c653e202020202e62617365207b20202020202066696c6c3a20626c75653b202020202020666f6e742d66616d696c793a2073657269663b202020202020666f6e742d73697a653a20323070783b202020202020636f6c6f723a20234646463b202020207d202020202e73746f7031207b2073746f702d636f6c6f723a20677265656e3b207d202020202e73746f7032207b2073746f702d636f6c6f723a2077686974653b2073746f702d6f7061636974793a20303b207d202020202e73746f7033207b2073746f702d636f6c6f723a2079656c6c6f773b207d2020202020203c2f7374796c653e20203c726563742077696474683d273130302527206865696768743d2731303025272066696c6c3d2775726c28234772616469656e74312927202f3e20203c7465787420202020783d273530252720202020793d273530252720202020636c6173733d27626173652720202020646f6d696e616e742d626173656c696e653d276d6964646c652720202020746578742d616e63686f723d276d6964646c652720203e",
  "linkReferences": {},
  "deployedLinkReferences": {}
}